{
  "contractName": "SecuredWithRoles",
  "abi": [
    {
      "constant": false,
      "inputs": [
        {
          "name": "owner_",
          "type": "address"
        }
      ],
      "name": "setOwner",
      "outputs": [],
      "payable": false,
      "stateMutability": "nonpayable",
      "type": "function"
    },
    {
      "constant": false,
      "inputs": [],
      "name": "restart",
      "outputs": [],
      "payable": false,
      "stateMutability": "nonpayable",
      "type": "function"
    },
    {
      "constant": true,
      "inputs": [],
      "name": "roles",
      "outputs": [
        {
          "name": "",
          "type": "address"
        }
      ],
      "payable": false,
      "stateMutability": "view",
      "type": "function"
    },
    {
      "constant": false,
      "inputs": [],
      "name": "emergencyStop",
      "outputs": [],
      "payable": false,
      "stateMutability": "nonpayable",
      "type": "function"
    },
    {
      "constant": true,
      "inputs": [],
      "name": "stopped",
      "outputs": [
        {
          "name": "",
          "type": "bool"
        }
      ],
      "payable": false,
      "stateMutability": "view",
      "type": "function"
    },
    {
      "constant": true,
      "inputs": [],
      "name": "owner",
      "outputs": [
        {
          "name": "",
          "type": "address"
        }
      ],
      "payable": false,
      "stateMutability": "view",
      "type": "function"
    },
    {
      "constant": false,
      "inputs": [
        {
          "name": "roles_",
          "type": "address"
        }
      ],
      "name": "setRolesContract",
      "outputs": [],
      "payable": false,
      "stateMutability": "nonpayable",
      "type": "function"
    },
    {
      "inputs": [
        {
          "name": "contractName_",
          "type": "string"
        },
        {
          "name": "roles_",
          "type": "address"
        }
      ],
      "payable": false,
      "stateMutability": "nonpayable",
      "type": "constructor"
    },
    {
      "anonymous": false,
      "inputs": [
        {
          "indexed": false,
          "name": "newOwner",
          "type": "address"
        }
      ],
      "name": "LogSetOwner",
      "type": "event"
    },
    {
      "constant": true,
      "inputs": [
        {
          "name": "roleName",
          "type": "string"
        }
      ],
      "name": "hasRole",
      "outputs": [
        {
          "name": "",
          "type": "bool"
        }
      ],
      "payable": false,
      "stateMutability": "view",
      "type": "function"
    },
    {
      "constant": true,
      "inputs": [
        {
          "name": "roleName",
          "type": "string"
        }
      ],
      "name": "senderHasRole",
      "outputs": [
        {
          "name": "",
          "type": "bool"
        }
      ],
      "payable": false,
      "stateMutability": "view",
      "type": "function"
    },
    {
      "constant": true,
      "inputs": [],
      "name": "contractHash",
      "outputs": [
        {
          "name": "",
          "type": "bytes32"
        }
      ],
      "payable": false,
      "stateMutability": "view",
      "type": "function"
    }
  ],
  "bytecode": "0x60606040526000600360006101000a81548160ff021916908315150217905550341561002a57600080fd5b604051610b6b380380610b6b83398101604052808051820191906020018051906020019091905050336000806101000a81548173ffffffffffffffffffffffffffffffffffffffff021916908373ffffffffffffffffffffffffffffffffffffffff160217905550816040518082805190602001908083835b6020831015156100c857805182526020820191506020810190506020830392506100a3565b6001836020036101000a03801982511681845116808217855250505050505090500191505060405180910390206002816000191690555080600160006101000a81548173ffffffffffffffffffffffffffffffffffffffff021916908373ffffffffffffffffffffffffffffffffffffffff1602179055505050610a1a806101516000396000f3006060604052600436106100a4576000357c0100000000000000000000000000000000000000000000000000000000900463ffffffff16806313af4035146100a95780631ca03b8e146100e25780631ef3755d14610157578063392f5f641461016c57806363a599a4146101c157806375f12b21146101d65780638da5cb5b14610203578063904c609414610258578063afa202ac14610289578063e3c33a9b146102c2575b600080fd5b34156100b457600080fd5b6100e0600480803573ffffffffffffffffffffffffffffffffffffffff16906020019091905050610337565b005b34156100ed57600080fd5b61013d600480803590602001908201803590602001908080601f01602080910402602001604051908101604052809392919081815260200183838082843782019150505050505091905050610459565b604051808215151515815260200191505060405180910390f35b341561016257600080fd5b61016a6105d7565b005b341561017757600080fd5b61017f610696565b604051808273ffffffffffffffffffffffffffffffffffffffff1673ffffffffffffffffffffffffffffffffffffffff16815260200191505060405180910390f35b34156101cc57600080fd5b6101d46106bc565b005b34156101e157600080fd5b6101e961077b565b604051808215151515815260200191505060405180910390f35b341561020e57600080fd5b61021661078e565b604051808273ffffffffffffffffffffffffffffffffffffffff1673ffffffffffffffffffffffffffffffffffffffff16815260200191505060405180910390f35b341561026357600080fd5b61026b6107b3565b60405180826000191660001916815260200191505060405180910390f35b341561029457600080fd5b6102c0600480803573ffffffffffffffffffffffffffffffffffffffff169060200190919050506107b9565b005b34156102cd57600080fd5b61031d600480803590602001908201803590602001908080601f016020809104026020016040519081016040528093929190818152602001838380828437820191505050505050919050506108b5565b604051808215151515815260200191505060405180910390f35b6000809054906101000a900473ffffffffffffffffffffffffffffffffffffffff1673ffffffffffffffffffffffffffffffffffffffff163373ffffffffffffffffffffffffffffffffffffffff1614151561039257600080fd5b806000806101000a81548173ffffffffffffffffffffffffffffffffffffffff021916908373ffffffffffffffffffffffffffffffffffffffff1602179055507fce241d7ca1f669fee44b6fc00b8eba2df3bb514eed0f6f668f8f89096e81ed946000809054906101000a900473ffffffffffffffffffffffffffffffffffffffff16604051808273ffffffffffffffffffffffffffffffffffffffff1673ffffffffffffffffffffffffffffffffffffffff16815260200191505060405180910390a150565b6000610464826108b5565b80156105d05750600160009054906101000a900473ffffffffffffffffffffffffffffffffffffffff1673ffffffffffffffffffffffffffffffffffffffff16638b51ca42600254846040518082805190602001908083835b6020831015156104e257805182526020820191506020810190506020830392506104bd565b6001836020036101000a0380198251168184511680821785525050505050509050019150506040518091039020336000604051602001526040518463ffffffff167c010000000000000000000000000000000000000000000000000000000002815260040180846000191660001916815260200183600019166000191681526020018273ffffffffffffffffffffffffffffffffffffffff1673ffffffffffffffffffffffffffffffffffffffff1681526020019350505050602060405180830381600087803b15156105b457600080fd5b6102c65a03f115156105c557600080fd5b505050604051805190505b9050919050565b6040805190810160405280600981526020017f72657374617274657200000000000000000000000000000000000000000000008152506000809054906101000a900473ffffffffffffffffffffffffffffffffffffffff1673ffffffffffffffffffffffffffffffffffffffff163373ffffffffffffffffffffffffffffffffffffffff16148061066d575061066c81610459565b5b151561067857600080fd5b6000600360006101000a81548160ff02191690831515021790555050565b600160009054906101000a900473ffffffffffffffffffffffffffffffffffffffff1681565b6040805190810160405280600781526020017f73746f70706572000000000000000000000000000000000000000000000000008152506000809054906101000a900473ffffffffffffffffffffffffffffffffffffffff1673ffffffffffffffffffffffffffffffffffffffff163373ffffffffffffffffffffffffffffffffffffffff161480610752575061075181610459565b5b151561075d57600080fd5b6001600360006101000a81548160ff02191690831515021790555050565b600360009054906101000a900460ff1681565b6000809054906101000a900473ffffffffffffffffffffffffffffffffffffffff1681565b60025481565b6000809054906101000a900473ffffffffffffffffffffffffffffffffffffffff1673ffffffffffffffffffffffffffffffffffffffff163373ffffffffffffffffffffffffffffffffffffffff1614151561081457600080fd5b600160009054906101000a900473ffffffffffffffffffffffffffffffffffffffff1673ffffffffffffffffffffffffffffffffffffffff163073ffffffffffffffffffffffffffffffffffffffff161415151561087157600080fd5b80600160006101000a81548173ffffffffffffffffffffffffffffffffffffffff021916908373ffffffffffffffffffffffffffffffffffffffff16021790555050565b6000600160009054906101000a900473ffffffffffffffffffffffffffffffffffffffff1673ffffffffffffffffffffffffffffffffffffffff16633037cea3600254846040518082805190602001908083835b60208310151561092e5780518252602082019150602081019050602083039250610909565b6001836020036101000a03801982511681845116808217855250505050505090500191505060405180910390206000604051602001526040518363ffffffff167c0100000000000000000000000000000000000000000000000000000000028152600401808360001916600019168152602001826000191660001916815260200192505050602060405180830381600087803b15156109cc57600080fd5b6102c65a03f115156109dd57600080fd5b5050506040518051905090509190505600a165627a7a72305820a788702c32921a5aef88f9105c78adf37a7a68b87a8078558af3909b432409c50029",
  "source": "// Copyright (c) 2018 Company Inc.\n//\n// Licensed under the Apache License, Version 2.0 (the \"License\");\n// you may not use this file except in compliance with the License.\n// You may obtain a copy of the License at\n//\n//     http://www.apache.org/licenses/LICENSE-2.0\n//\n// Unless required by applicable law or agreed to in writing, software\n// distributed under the License is distributed on an \"AS IS\" BASIS,\n// WITHOUT WARRANTIES OR CONDITIONS OF ANY KIND, either express or implied.\n// See the License for the specific language governing permissions and\n// limitations under the License.\n\npragma solidity ^0.4.17;\n\nimport \"./Owned.sol\";\n\n\ninterface SecuredWithRolesI {\n    function hasRole(string roleName) public view returns (bool);\n    function senderHasRole(string roleName) public view returns (bool);\n    function contractHash() public view returns (bytes32);\n}\n\n\ncontract SecuredWithRoles is Owned {\n    RolesI public roles;\n    bytes32 public contractHash;\n    bool public stopped = false;\n\n    function SecuredWithRoles(string contractName_, address roles_) public {\n        contractHash = keccak256(contractName_);\n        roles = RolesI(roles_);\n    }\n\n    modifier stoppable() {\n        require(!stopped);\n        _;\n    }\n\n    modifier onlyRole(string role) {\n        require(senderHasRole(role));\n        _;\n    }\n\n    modifier roleOrOwner(string role) {\n        require(msg.sender == owner || senderHasRole(role));\n        _;\n    }\n\n    // returns true if the role has been defined for the contract\n    function hasRole(string roleName) public view returns (bool) {\n        return roles.knownRoleNames(contractHash, keccak256(roleName));\n    }\n\n    function senderHasRole(string roleName) public view returns (bool) {\n        return hasRole(roleName) && roles.roleList(contractHash, keccak256(roleName), msg.sender);\n    }\n\n    function emergencyStop() public roleOrOwner(\"stopper\") {\n        stopped = true;\n    }\n\n    function restart() public roleOrOwner(\"restarter\") {\n        stopped = false;\n    }\n\n    function setRolesContract(address roles_) public onlyOwner {\n        // it must not be possible to change the roles contract on the roles contract itself\n        require(this != address(roles));\n        roles = RolesI(roles_);\n    }\n\n}\n\n\ninterface RolesI {\n    function knownRoleNames(bytes32 contractHash, bytes32 nameHash) public view returns (bool);\n    function roleList(bytes32 contractHash, bytes32 nameHash, address member) public view returns (bool);\n\n    function addContractRole(bytes32 ctrct, string roleName) public;\n    function removeContractRole(bytes32 ctrct, string roleName) public;\n    function grantUserRole(bytes32 ctrct, string roleName, address user) public;\n    function revokeUserRole(bytes32 ctrct, string roleName, address user) public;\n}\n\n\ncontract RolesEvents {\n    event LogRoleAdded(bytes32 contractHash, string roleName);\n    event LogRoleRemoved(bytes32 contractHash, string roleName);\n    event LogRoleGranted(bytes32 contractHash, string roleName, address user);\n    event LogRoleRevoked(bytes32 contractHash, string roleName, address user);\n}\n\n\ncontract Roles is RolesEvents, SecuredWithRoles {\n    // mapping is contract -> role -> sender_address -> boolean\n    mapping(bytes32 => mapping (bytes32 => mapping (address => bool))) public roleList;\n    // the intention is\n    mapping (bytes32 => mapping (bytes32 => bool)) public knownRoleNames;\n\n    function Roles() SecuredWithRoles(\"RolesRepository\", this) public {}\n\n    function addContractRole(bytes32 ctrct, string roleName) public roleOrOwner(\"admin\") {\n        require(!knownRoleNames[ctrct][keccak256(roleName)]);\n        knownRoleNames[ctrct][keccak256(roleName)] = true;\n        LogRoleAdded(ctrct, roleName);\n    }\n\n    function removeContractRole(bytes32 ctrct, string roleName) public roleOrOwner(\"admin\") {\n        require(knownRoleNames[ctrct][keccak256(roleName)]);\n        delete knownRoleNames[ctrct][keccak256(roleName)];\n        LogRoleRemoved(ctrct, roleName);\n    }\n\n    function grantUserRole(bytes32 ctrct, string roleName, address user) public roleOrOwner(\"admin\") {\n        require(knownRoleNames[ctrct][keccak256(roleName)]);\n        roleList[ctrct][keccak256(roleName)][user] = true;\n        LogRoleGranted(ctrct, roleName, user);\n    }\n\n    function revokeUserRole(bytes32 ctrct, string roleName, address user) public roleOrOwner(\"admin\") {\n        delete roleList[ctrct][keccak256(roleName)][user];\n        LogRoleRevoked(ctrct, roleName, user);\n    }\n\n}\n",
  "sourcePath": "/Users/mbenhajla/Documents/Blockchain_Projekte/TrecentoProject/trecentoproject/contracts/authority/Roles.sol",
  "compiler": {
    "name": "solc",
    "version": "0.4.19+commit.c4cbbb05.Emscripten.clang"
  },
  "schemaVersion": "1.0.1",
  "updatedAt": "2018-03-20T17:19:01.643Z"
}